:0400000007EF00F016
:100008005C8251ED13F031EF11F0A90EBA6F98EF41
:1000180005F0250ED019D8B40AD0A5C0D9FFA6C0BE
:10002800DAFFD0C0DFFFA54BA62B98EF05F0000E36
:10003800CD6F000ECC6F000EC86F000EC76F03D0D7
:10004800C785A74BA82BA7C0F6FFA8C0F7FF0800D5
:10005800F550300AD8B4F4D7A7C0F6FFA8C0F7FF08
:100068000800F55031EC15F0D8A034D0000E00018E
:10007800CD6F000ECC6FCCC024F0CDC025F0000EA3
:10008800276E0A0E266EC7EC14F024C0CCF025C0EB
:10009800CDF0D00E0001AF6FFF0EB06FA7C0F6FF16
:1000A800A8C0F7FF0800F550B16FB26BAF51B12788
:1000B800B051B223B151CC27B251CD23A74BA82BB5
:1000C800A7C0F6FFA8C0F7FF0800F55031EC15F0FF
:1000D800D8B0D1D7A7C0F6FFA8C0F7FF0800F550E1
:1000E8002E0AD8A439D00001C88DA74BA82B000E22
:1000F800CF6F000ECE6F25D0CEC024F0CFC025F034
:10010800000E276E0A0E266EC7EC14F024C0CEF03F
:1001180025C0CFF0D00E0001AF6FFF0EB06FA7C0A3
:10012800F6FFA8C0F7FF0800F550B16FB26BAF51EA
:10013800B127B051B223B151CE27B251CF23A74B2B
:10014800A82BA7C0F6FFA8C0F7FF0800F55031ECB0
:1001580015F0D8A096D0D0D7000E0001CF6F000EB2
:10016800CE6FC8898ED0C885A9D0BA51D96EDA6A3F
:10017800DECFB8F0DDCFB9F0020EBA27B851B91109
:10018800D8A404D0D70EB86FFF0EB96F000EBC6F9D
:10019800000EBB6F03D00001BB4BBC2BBB51B82575
:1001A800AF6FBC51B921B06FAFC0F6FFB0C0F7FF59
:1001B800000EF86E0F0EF76403D00800F55005D056
:1001C800F6CFE1FFF7CFE2FFE7500009D8A4E3D765
:1001D8000001CE51CF11D8B40ED0BB51CE5DCF5156
:1001E800800AAF6FBC51800AAF59D8B004D0CEC0D6
:1001F800BBF0CFC0BCF0CC51BB5DCD51BC59D8B021
:1002080005D0BB51CC5FBC51CD5B0DD0000ECD6F7E
:10021800000ECC6F08D0A5C0D9FFA6C0DAFF200E0B
:10022800DF6EA54BA62BCC07D8A0CD07CC29F3E1D0
:10023800CD29D8B41CD0EFD7B8C0F6FFB9C0F7FFA6
:10024800000EF86EA5C0D9FFA6C0DAFF0F0EF7643E
:1002580003D00800F55005D0F6CFE1FFF7CFE2FF55
:10026800E750DF6E0001B84BB92BA54BA62BBB0797
:10027800D8A0BC07BB29E0E1BC29D8B498EF05F0A9
:10028800DBD7A7C0F6FFA8C0F7FF0001A74BA82B34
:100298000800F5CFD0F0D051000AD8B4A5EF05F08A
:1002A800640AD8B40BD0020AD8B45DD70F0AD8B400
:1002B80005D01A0AD8B459D798EF05F0070EC81513
:1002C800D8B40CD3C8A904D0000ECF6F060ECE6FD9
:1002D800BA51D96EDA6ADECFC9F0DECFCAF0DDCF07
:1002E800CBF0030EBA27CBAF10D0C9C024F0CAC0D8
:1002F80025F0CBC026F0EDEC14F024C0C9F025C0E1
:10030800CAF026C0CBF0030EC713000EC66F000E4E
:10031800C56FC951CA11CB11D8B486D0820EAF6F40
:10032800FF0EB06FC9C0B1F0CAC0B2F0CBC0B3F015
:10033800CCC0B4F0100E05D0D890B433B333B23378
:10034800B133E82EF9D7B151AF25C56F000EB021F2
:10035800C66FC507D8A0C607C5C024F0C6C025F01B
:10036800000E276E030E266EC7EC14F024C0C5F0ED
:1003780025C0C6F0C5C02AF0C6C02BF0000E2D6EF1
:100388000A0E2C6E02EC10F02AC0C5F02BC0C6F085
:100398000001C6AF03D0C507D8A0C607C5510008DD
:1003A800ACEC05F089C0BDF08AC0BEF08BC0BFF0D0
:1003B800BDC032F0BEC033F0BFC034F0C9C035F0A4
:1003C800CAC036F0CBC037F080EC0DF032C0BDF0BB
:1003D80033C0BEF034C0BFF0BDC024F0BEC025F0AD
:1003E800BFC026F0000E276E800E286E3F0E296EC5
:1003F80085EC10F0D8B005D00001C507D8A0C60715
:1004080013D0BDC024F0BEC025F0BFC026F0000E3A
:10041800276E200E286E410E296E85EC10F0D8A0AC
:1004280003D00001C54BC62B0001CFBF06D0CF516A
:100438001BE10D0ECE5DD8B017D0C9C093F0CAC06D
:1004480094F0CBC095F0CE51E0EC09F089C096F05D
:100458008AC097F08BC098F0D6EC0AF093C0C9F028
:1004680094C0CAF095C0CBF00001C6BF06D0C651F3
:100478001EE10A0EC55DD8B01AD0C951CA11CB11F8
:10048800D8B454D0C9C090F0CAC091F0CBC092F093
:10049800E9EC0EF09051911192119311D8B4C6BFA6
:1004A80045D0C65104E1020EC55DD8A03FD0BDC0FD
:1004B80024F0BEC025F0BFC026F0700E276E890E4E
:1004C800286E400E296E85EC10F0D8B003D00001DC
:1004D800F70E02D00001F80EC527FF0EC623C5513E
:1004E800ACEC05F089C0BDF08AC0BEF08BC0BFF08F
:1004F800C9C024F0CAC025F0CBC026F0BDC027F083
:10050800BEC028F0BFC029F001EC0DF024C0C1F036
:1005180025C0C2F026C0C3F027C0C4F0000E0001F9
:10052800C96F000ECA6F000ECB6F33D0C9C090F0F0
:10053800CAC091F0CBC092F0E9EC0EF090C0C1F0C7
:1005480091C0C2F092C0C3F093C0C4F0C9C09FF07C
:10055800CAC0A0F0CBC0A1F0C1C02CF0C2C02DF021
:10056800C3C02EF0C4C02FF05FEC12F02CC0A2F074
:100578002DC0A3F02EC0A4F075EC13F09FC0C9F0F5
:10058800A0C0CAF0A1C0CBF0000E0001C66F000EDB
:10059800C56F010ED06FD051040D270EF324F66EEF
:1005A800FF0EF420F76E0900F550C15D0900F55003
:1005B800C2590900F550C3590900F550C459D8A0CB
:1005C80005D0D02B0A0ED019D8A4E5D7D051CE2506
:1005D800AF6F000ECF21B06FC551AF27C651B02302
:1005E800AF51CC5FB051CD5BCE51CF11D8B403D051
:1005F800CC07D8A0CD07C7C0AFF0030EAF17D8B44B
:1006080003D0CC07D8A0CD07C7A52DD0C7C0AFF061
:10061800030EAF17D8B414D0A5C0D9FFA6C0DAFF0F
:100628002D0EDF6EA54BA62B0BD0A5C0D9FFA6C0FB
:10063800DAFF300EDF6EA54BA62BCC07D8A0CD076E
:10064800CDBF6DD0CD51F1E1CC05D8A068D0EDD7A4
:10065800A5C0D9FFA6C0DAFF200EDF6EA54BA62BDA
:10066800CC07D8A0CD07CDBF05D0CD51F1E1CC0541
:10067800D8B0EED7C7C0AFF0030EAF17D8B44FD07D
:10068800A5C0D9FFA6C0DAFF2D0E46D0C1C024F000
:10069800C2C025F0C3C026F0C4C027F0D051040D55
:1006A800270EF324F66EFF0EF420F76E0900F5CF3F
:1006B80028F00900F5CF29F00900F5CF2AF00A0043
:1006C800F5CF2BF044EC10F024C0BDF025C0BEF0EF
:1006D80026C0BFF027C0C0F0BDC031F0BEC032F0A8
:1006E800BFC033F0C0C034F00A0E356E000E366E4F
:1006F800000E376E000E386E9CEC11F031C0BDF064
:1007080032C0BEF033C0BFF034C0C0F0BD51300FAE
:10071800A5C0D9FFA6C0DAFFDF6EA54BA62BD00770
:10072800D029D8B40CD0B2D7A5C0D9FFA6C0DAFF5B
:10073800300EDF6EA54BA62BC507D8A0C607C6BFCF
:1007480005D0C651F1E1C505D8B0EED7CFBF09D065
:10075800CF5104E1090ECE5DD8A003D0080ED06FAA
:1007680002D0CEC0D0F0D051CE5F000ECF5BD051BA
:10077800D8B408D0A5C0D9FFA6C0DAFF2E0EDF6E08
:10078800A54BA62BD051ACEC05F089C0B5F08AC0BA
:10079800B6F08BC0B7F0C9C035F0CAC036F0CBC0D0
:1007A80037F0B5C032F0B6C033F0B7C034F080ECE3
:1007B8000DF032C090F033C091F034C092F0E9EC03
:1007C8000EF090C0C1F091C0C2F092C0C3F093C0C7
:1007D800C4F06FD0C1C024F0C2C025F0C3C026F059
:1007E800C4C027F0D051040D270EF324F66EFF0E77
:1007F800F420F76E0900F5CF28F00900F5CF29F0AD
:100808000900F5CF2AF00A00F5CF2BF044EC10F0E0
:1008180024C0BDF025C0BEF026C0BFF027C0C0F080
:10082800BDC031F0BEC032F0BFC033F0C0C034F03C
:100838000A0E356E000E366E000E376E000E386EDC
:100848009CEC11F031C0BDF032C0BEF033C0BFF037
:1008580034C0C0F0BD51300FA5C0D9FFA6C0DAFF23
:10086800DF6EA54BA62BC1C031F0C2C032F0C3C0A9
:1008780033F0C4C034F0D051040D270EF324F66EC3
:10088800FF0EF420F76E0900F5CF35F00900F5CF1B
:1008980036F00900F5CF37F00A00F5CF38F09CECB8
:1008A80011F031C0C1F032C0C2F033C0C3F034C05F
:1008B800C4F0D007D029D8B40CD08CD7A5C0D9FFA4
:1008C800A6C0DAFF300EDF6EA54BA62BCE07D8A048
:1008D800CF07CE51CF11D8B427D1F0D7BA51D96E9E
:1008E800DA6ADECFC1F0DDCFC2F0000EC2BFFF0E64
:1008F800C36FC46F020EBA27C4AF0AD0030EC71362
:10090800C41FC31FC21FC16D000EC223C323C4234B
:10091800CE51CF11D8A408D0C151C211C311C411EE
:10092800D8A402D0CE4BCF2B010ED06FD051040DDE
:10093800270EF324F66EFF0EF420F76E0900F5502B
:10094800C15D0900F550C2590900F550C3590900A5
:10095800F550C459D8A005D0D02B0A0ED019D8A468
:10096800E5D7D051AF6FB06BCE51AF5DB051800AB3
:10097800B16FCF51800AB159D8B003D0CEC0D0F0F2
:1009880010D0D051AF6FB06BAF51CE5DCF51800A50
:10099800B16FB051800AB159D8B003D0D0C0CEF0F1
:1009A800CF6BCC51CD11D8B409D0C7C0AFF0030E6E
:1009B800AF17D8B403D0CC07D8A0CD07C8AD13D093
:1009C800CC51CE5DCF51800AAF6FCD51800AAF595F
:1009D800D8B005D0CE51CC5FCF51CD5B04D0000E3E
:1009E800CD6F000ECC6FD051AF6FB06BCC51AF5DF7
:1009F800B051800AB16FCD51800AB159D8B005D035
:100A0800D051CC5F000ECD5B04D0000ECD6F000E30
:100A1800CC6FC7A51ED0C7C0AFF0030EAF17D8B4B0
:100A280008D0A5C0D9FFA6C0DAFF2D0EDF6EA54BF2
:100A3800A62BCC51CD11D8B46FD0A5C0D9FFA6C074
:100A4800DAFF300EDF6EA54BA62BCC07D8A0CD075A
:100A5800F0D7CC51CD11D8B40FD0A5C0D9FFA6C0BE
:100A6800DAFF200EDF6EA54BA62BCC07D8A0CD074A
:100A7800CC51CD11D8A4F1D7C7C0AFF0030EAF1732
:100A8800D8B44AD0A5C0D9FFA6C0DAFF2D0EDF6EB4
:100A980041D0CEC0AFF0CFC0B0F0D890AF37B037AC
:100AA800D890AF37B037270EAF25F66EFF0EB021BE
:100AB800F76E0900F5CF28F00900F5CF29F00900F5
:100AC800F5CF2AF00A00F5CF2BF0C1C024F0C2C040
:100AD80025F0C3C026F0C4C027F044EC10F024C0B1
:100AE80031F025C032F026C033F027C034F00A0EAA
:100AF800356E000E366E000E376E000E386E9CECAA
:100B080011F03150300FD06FA5C0D9FFA6C0DAFF61
:100B1800D0C0DFFFA54BA62BCE07D8A0CF07CE2984
:100B2800B8E1CF29D8A4B5D7A7C0F6FFA8C0F7FF6A
:100B3800A74BA82B0800F5CFD0F0D051D8A40DEFC3
:100B480000F0A5C0D9FFA6C0DAFF000EDF6E1200C4
:100B58008F6F00018FAFDCD08F6D8F51800A120F1D
:100B6800D8A07BD0000E2D6E0A0E2C6E000E276EBC
:100B7800640E266E8F51246E256A24BE2506F9EC74
:100B880010F024C02AF025C02BF002EC10F0090E5A
:100B98002A262A50030D000EF324F66EFF0EF420C9
:100BA800F76E0900F5CF35F00900F5CF36F00A00E9
:100BB800F5CF37F0000E2D6E640E2C6E00018F51AC
:100BC8002A6E2B6A2ABE2B0602EC10F0120E2A2679
:100BD8002A50030D000EF324F66EFF0EF420F76E74
:100BE8000900F5CF32F00900F5CF33F00A00F5CF50
:100BF80034F080EC0DF032C08CF033C08DF034C08E
:100C08008EF08CC032F08DC033F08EC034F0000E00
:100C1800276E0A0E266E00018F51246E256A24BEA7
:100C28002506F9EC10F02450030D000EF324F66E9F
:100C3800FF0EF420F76E0900F5CF35F00900F5CF67
:100C480036F00A00F5CF37F080EC0DF032C089F0AD
:100C580033C08AF034C08BF012008F51800A750FB0
:100C6800D8A044D0000E2D6E0A0E2C6E8F512A6E1D
:100C78002B6A2ABE2B0602EC10F0090E2A262A50EF
:100C8800030D000EF324F66EFF0EF420F76E090034
:100C9800F5CF32F00900F5CF33F00A00F5CF34F084
:100CA800000E276E0A0E266E00018F51246E256AEB
:100CB80024BE2506F9EC10F02450030D000EF32491
:100CC800F66EFF0EF420F76E0900F5CF35F0090037
:100CD800F5CF36F00A00F5CF37F080EC0DF032C0D2
:100CE80089F033C08AF034C08BF012008F51030DA5
:100CF800000EF324F66EFF0EF420F76E0900F5CF10
:100D080089F00900F5CF8AF00A00F5CF8BF01200C0
:100D18008F51800A120FD8A07BD0000E2D6E0A0EBC
:100D28002C6E000E276E640E266E8F51246E256A77
:100D380024BE2506F9EC10F024C02AF025C02BF0BB
:100D480002EC10F0090E2A262A50030DD90EF324BE
:100D5800F66EFE0EF420F76E0900F5CF35F00900A7
:100D6800F5CF36F00A00F5CF37F0000E2D6E640E81
:100D78002C6E00018F512A6E2B6A2ABE2B0602ECBC
:100D880010F0120E2A262A50030DD90EF324F66EFF
:100D9800FE0EF420F76E0900F5CF32F00900F5CF0A
:100DA80033F00A00F5CF34F080EC0DF032C08CF04F
:100DB80033C08DF034C08EF08CC032F08DC033F06B
:100DC8008EC034F0000E276E0A0E266E00018F5179
:100DD800246E256A24BE2506F9EC10F02450030D74
:100DE800D90EF324F66EFE0EF420F76E0900F5CF47
:100DF80035F00900F5CF36F00A00F5CF37F080EC72
:100E08000DF032C089F033C08AF034C08BF0120084
:100E18008F51800A750FD8A044D0000E2D6E0A0E8F
:100E28002C6E8F512A6E2B6A2ABE2B0602EC10F00C
:100E3800090E2A262A50030DD90EF324F66EFE0E4B
:100E4800F420F76E0900F5CF32F00900F5CF33F042
:100E58000A00F5CF34F0000E276E0A0E266E000148
:100E68008F51246E256A24BE2506F9EC10F0245013
:100E7800030DD90EF324F66EFE0EF420F76E09006A
:100E8800F5CF35F00900F5CF36F00A00F5CF37F089
:100E980080EC0DF032C089F033C08AF034C08BF09A
:100EA80012008F51030DD90EF324F66EFE0EF420B6
:100EB800F76E0900F5CF89F00900F5CF8AF00A002E
:100EC800F5CF8BF01200000E5B6E010E5A6E000E0D
:100ED8004A6E000E496E000E596E000E586E84EC74
:100EE80014F0000E0001D46F000ED36F000E4C6E8C
:100EF800000E4B6E6DEC15F0000EF26E000EF26EE9
:100F0800D09EF288F28A000EF16E000EF06EF08626
:100F1800F18AF18C800ED56E000E9D6E000E9E6ECD
:100F2800000E9F6E000EA06E000EA06E000EA16E49
:100F3800000EA26EF28EF28C82922DEC13F0010E4E
:100F48002C6E000E30EC14F0040081B211D0000EAB
:100F5800466E000E456E000E576E000E566E828A63
:100F68004B044C10D8A404D0000E4C6E000E4B6EEF
:100F780081B00CD00101E04BE12B050EE019E11125
:100F8800D8A404D0000EE16F000EE06F81BA17D02C
:100F9800000E5B6E000E5A6E000E4A6E000E496E11
:100FA800000E596E000E586E000E0001D46F000E30
:100FB800D36F000E0101E16F000EE06F829A81B4D9
:100FC80005D0829A000E4C6E010E4B6E000E67EC37
:100FD80011F086C039F087C03AF088C03BF039C0BC
:100FE80032F03AC033F03BC034F0000E356E200EBC
:100FF800366E420E376E80EC0DF032C03FF033C0D3
:1010080040F034C041F0020E67EC11F086C03CF0AD
:1010180087C03DF088C03EF03CC032F03DC033F0A0
:101028003EC034F0000E356E480E366E430E376EF5
:1010380080EC0DF032C042F033C043F034C044F0CD
:101048000101E051E111D8A40FD081B608D030ECED
:1010580012F0000E0001D46F040ED36F40D081B897
:101068003ED0E1EC12F0F5D7E005E111D8A40AD0A2
:1010780081B603D0CFEC11F0ECD781B830D000ECBA
:1010880012F0E7D7020EE019E111D8A40AD081B610
:1010980003D008EC13F0DDD781B821D0D7EC13F0DA
:1010A800D8D7030EE019E111D8A40AD081B603D02D
:1010B800B8EC12F0CED781B812D069EC14F0C9D7C9
:1010C800040EE019E111D8A40AD081B603D022ECAD
:1010D80015F0BFD781B803D040EC15F0BAD75AC085
:1010E8002CF05BC02DF04DEC14F02C502D102E1070
:1010F800D8A435D049C02CF04AC02DF04DEC14F0DE
:101108002C502D102E10D8A42AD058C02CF059C01D
:101118002DF04DEC14F02C502D102E10D8A41FD00B
:10112800829A0001D4BF18D0D45103E1D305D8A0C6
:1011380013D08282000E256E140E246EDAEC14F0A1
:101148008292030E256EE80E246EDAEC14F000018C
:10115800D307D8A0D407E5D784EC14F0829AB6EC6C
:1011680008F0F2D6040E0101E019E111D8B421D03B
:1011780082AA10D0A00E0001A56F010EA66FEC0E7A
:10118800A76FFF0EA86FF30EA96FFF0EAA6F09ECE9
:1011980000F00FD0A00E0001A56F010EA66FEC0E97
:1011A800A76FFF0EA86FDE0EA96FFF0EAA6F09ECDE
:1011B80000F082AA10D0C00E0001A56F010EA66F24
:1011C800E50EA76FFF0EA86FF30EA96FFF0EAA6FAB
:1011D80009EC00F047D0C00E0001A56F010EA66F04
:1011E800E50EA76FFF0EA86FF90EA96FFF0EAA6F85
:1011F80009EC00F037D0400EA56F010EA66F780EEF
:10120800A76FFF0EA86F09EC00F044D0400EA56F41
:10121800010EA66F650EA76FFF0EA86F09EC00F010
:1012280039D0400EA56F010EA66F890EA76FFF0E6D
:10123800A86F09EC00F02ED0400EA56F010EA66F26
:10124800990EA76FFF0EA86F09EC00F023D0400E8F
:10125800A56F010EA66FB60EA76FFF0EA86F09EC5B
:1012680000F018D0E0C1D1F0E1C1D2F0D251000AAB
:10127800D8A410D0D151000AD8B4BDD7010AD8B427
:10128800C5D7030AD8B4CDD7010AD8B4D5D7070A29
:10129800D8B4DDD7010E2E6E010E96EC13F0800E39
:1012A8000001A56F010EA66F4F0EA76FFF0EA86F66
:1012B80058C0A9F059C0AAF049C0ABF04AC0ACF078
:1012C8005AC0ADF05BC0AEF009EC00F0800E326E93
:1012D800010E336EFFEC14F0020E2E6E010E96EC2A
:1012E80013F0000E0001A56F010EA66FA80EA76FE0
:1012F800FF0EA86F42C0A9F043C0AAF044C0ABF0EB
:1013080009EC00F0000E326E010E336EFFEC14F0A3
:10131800030E2E6E010E96EC13F0000E0001A56F61
:10132800010EA66FC20EA76FFF0EA86F3FC0A9F0EF
:1013380040C0AAF041C0ABF009EC00F0000E326EDC
:10134800010E336EFFEC14F0020E2E6E0A0E96ECB0
:1013580013F0A00E326E010E336EFFEC14F0030E84
:101368002E6E0A0E96EC13F0C00E326E010E336E1E
:10137800FFEC14F0040E2E6E010E96EC13F0000E26
:101388000001A56F010EA66FCD0EA76FFF0EA86F07
:1013980009EC00F0000E326E010E336EFFEC14F013
:1013A800040E2E6E030E96EC13F0400E326E010EF4
:1013B800336EFFEC14F01200926F6D0E000192650F
:1013C8007ED0000E356E000E366E3F0E376E640E00
:1013D800286E925113EC14F0386E3850030D360E07
:1013E800F326000EF422000EF324F66EFF0EF4200E
:1013F800F76E0900F5CF32F00900F5CF33F00A0097
:10140800F5CF34F080EC0DF032C08FF033C090F09F
:1014180034C091F00A0E286E640E246E00019251B9
:10142800B2EC14F013EC14F0386E3850030D1B0EA8
:10143800F326000EF422000EF324F66EFF0EF420BD
:10144800F76E0900F5CF35F00900F5CF36F00A0040
:10145800F5CF37F08FC032F090C033F091C034F040
:1014680080EC0DF032C08CF033C08DF034C08EF0BB
:101478008CC032F08DC033F08EC034F00A0E246E6A
:1014880000019251B2EC14F0386E3850030D000E82
:10149800F324F66EFF0EF420F76E0900F5CF35F051
:1014A8000900F5CF36F00A00F5CF37F080EC0DF0E3
:1014B80032C089F033C08AF034C08BF012000A0EB3
:1014C800926550D0000E356E000E366E3F0E376EA8
:1014D8000A0E286E925113EC14F0386E3850030D32
:1014E8001B0EF326000EF422000EF324F66EFF0EF8
:1014F800F420F76E0900F5CF32F00900F5CF33F08C
:101508000A00F5CF34F080EC0DF032C08FF033C014
:1015180090F034C091F08FC032F090C033F091C099
:1015280034F00A0E246E00019251B2EC14F0386EB9
:101538003850030D000EF324F66EFF0EF420F76EFC
:101548000900F5CF35F00900F5CF36F00A00F5CFE0
:1015580037F080EC0DF032C089F033C08AF034C027
:101568008BF012009251030D000EF324F66EFF0E5D
:10157800F420F76E0900F5CF32F00900F5CF33F00B
:101588000A00F5CF34F0000E356E000E366E3F0EB1
:10159800376E80EC0DF032C089F033C08AF034C069
:1015A8008BF0120095C099F000019A6B9B6B9435F3
:1015B800993701E39A8199519E6F98C099F09A6B77
:1015C8009B6B9735993701E39A8199519D6F9E518D
:1015D800D8B40AD09D519E5DD8B00DD09E519D5D66
:1015E800996F180E996507D096C093F097C094F03C
:1015F80098C095F012009D51D8B40AD09E519D5DB7
:10160800D8B00DD09D519E5D996F180E996507D081
:1016180093C093F094C094F095C095F01200060E14
:101628009C6F95BF9C8F98BF9C8D948FFF0E9317CE
:10163800FF0E9417000E9517978FFF0E9617FF0E43
:101648009717000E98179D519E5DD8B01BD0D89063
:101658009637973798379D079E519D19D8B40DD066
:101668009C079CC099F0070E9917D8B406D0EFD7FD
:10167800D8909533943393339E2B9D519E19D8B4AB
:101688001FD0F6D79E519D5DD8B01AD0D890933709
:10169800943795379E079E519D19D8B40DD09C0755
:1016A8009CC099F0070E9917D8B406D0EFD7D890F8
:1016B8009833973396339D2B9D519E19D8A4F7D70D
:1016C8009CAF0CD0FF0E931BFF0E941BFF0E951BB7
:1016D800010E9327000E9423000E95239CAD0CD089
:1016E800FF0E961BFF0E971BFF0E981B010E9627E9
:1016F800000E9723000E9823000E9C6F9351962797
:10170800945197239551982398AF0ED0FF0E961BAE
:10171800FF0E971BFF0E981B010E9627000E9723AE
:10172800000E9823010E9C6F96C024F097C025F0F8
:1017380098C026F09EC027F09CC028F054EC0FF00B
:1017480024C093F025C094F026C095F012000BC079
:101758000FF0106A116A0A340F3601E310800F5037
:10176800146E0EC00FF0106A116A0D340F3601E3C3
:1017780010800F50136E1450D8B40AD01350145C54
:10178800D8B00DD01450135C0F6E180E0F6407D02C
:101798000CC009F00DC00AF00EC00BF01200135077
:1017A800D8B40AD01450135CD8B00DD01350145CC0
:1017B8000F6E180E0F6407D009C009F00AC00AF0AE
:1017C8000BC00BF01200060E126E0BBE128E0EBE70
:1017D800128C0A8EFF0E0916FF0E0A16000E0B1643
:1017E8000D8EFF0E0C16FF0E0D16000E0E16135062
:1017F800145CD8B01BD0D8900C360D360E361306B4
:1018080014501318D8B40DD0120612C00FF0070EDA
:101818000F16D8B406D0EFD7D8900B320A32093257
:10182800142A13501418D8B41FD0F6D71450135CC8
:10183800D8B01AD0D89009360A360B361406145088
:101848001318D8B40DD0120612C00FF0070E0F16D9
:10185800D8B406D0EFD7D8900E320D320C32132AF6
:1018680013501418D8A4F7D712AE0CD0FF0E091ACB
:10187800FF0E0A1AFF0E0B1A010E0926000E0A2285
:10188800000E0B2212AC0CD0FF0E0C1AFF0E0D1A14
:10189800FF0E0E1A010E0C26000E0D22000E0E224F
:1018A800000E126E09500C260A500D220B500E2203
:1018B8000EAE0ED0FF0E0C1AFF0E0D1AFF0E0E1AEA
:1018C800010E0C26000E0D22000E0E22010E126EC5
:1018D8000CC001F00DC002F00EC003F014C004F0FB
:1018E80012C005F0ABEC0FF001C009F002C00AF01D
:1018F80003C00BF01200F29453C018F054C019F052
:1019080055C01AF03FC015F040C016F041C017F09E
:10191800B7EC13F015C01BF016C01CF017C01DF073
:1019280042C01EF043C01FF044C020F0BFEC10F0CE
:10193800D8A002D0828A1ED042C01BF043C01CF03F
:1019480044C01DF053C00CF054C00DF055C00EF04B
:101958003FC009F040C00AF041C00BF0ABEC0BF0FF
:1019680009C01EF00AC01FF00BC020F0BFEC10F039
:10197800D8B0829A5A06D8A05B065BBE05D05B50E9
:1019880039E15A04D8B036D0000E5B6E3B0E5A6E61
:101998004906D8A04A0649282DE14A28D8A42AD0C1
:1019A800000E4A6E3B0E496E5806D8A059065828B4
:1019B80021E15928D8A41ED0000E596E000E586E89
:1019C8003B0E5A185B10D8A415D03B0E49184A1084
:1019D800D8A410D058505910D8A40CD0000E596E65
:1019E800000E586E000E5B6E000E5A6E000E4A6EA8
:1019F800000E496E78EC15F0120026C02AF02B6A0A
:101A08002C6A25342A3601E32B802A50326E325054
:101A1800D8A409D0000E246E000E256E000E266E86
:101A2800000E276E120029C02AF02B6A2C6A28346F
:101A38002A3601E32B802A50316E3150D8B4EAD7C8
:101A4800258EFF0E2416FF0E2516000E2616288E4C
:101A5800FF0E2716FF0E2816000E2916000E2D6EF3
:101A6800000E2E6E000E2F6E000E306E7F0E325E50
:101A78003150980F325E180E316ED8902D362E36B2
:101A88002F3630362750245C2850255829502658A0
:101A9800D8A007D02750245E2850255A2950265A06
:101AA8002D80D890243625362636312EE6D732AE0C
:101AB8000DD03250800A970FD8A0ACD7D8903032CA
:101AC8002F322E322D32323EF9D70DD0170E326416
:101AD80007D0A0D7D8902D362E362F36303632067E
:101AE8003250D8A4F7D72DC024F02EC025F02FC02F
:101AF80026F030C027F0120034C080F00001816B5E
:101B0800826B3334803701E381818051836F835145
:101B1800D8A407D0000E326E000E336E000E346E5D
:101B2800120037C080F0816B826B3634803701E356
:101B380081818051886F8851D8A407D0000E326EF9
:101B4800000E336E000E346E120088517B0F83270F
:101B580034C088F03750881B800E8817338E368E35
:101B6800FF0E3516FF0E3616000E3716000E846F60
:101B7800000E856F000E866F070E876F32A006D0A5
:101B8800355084273650852337508623D8903432F1
:101B980033323232D890353636363736872FEED74D
:101BA800090E876F32A006D035508427365085231A
:101BB80037508623D890343233323232D890863335
:101BC80085338433872FEED784C024F085C025F071
:101BD80086C026F083C027F088C028F054EC0FF0A8
:101BE80024C032F025C033F026C034F01200263469
:101BF80027342F6E2F50D8A409D0000E246E000E63
:101C0800256E000E266E000E276E120029342A3427
:101C18002E6E2E50D8B4F1D7268EFF0E2416FF0E46
:101C28002516FF0E2616000E2716298EFF0E2716DC
:101C3800FF0E2816FF0E2916000E2A16000E2A6E11
:101C4800000E2B6E000E2C6E000E2D6E7F0E2F5E7A
:101C58002E50A00F2F5E200E2E6ED8902A362B36CF
:101C68002C362D362750245C2850255829502658C4
:101C78002A502758D8A009D02750245E2850255A22
:101C88002950265A2A50275A2A80D8902436253691
:101C9800263627362E2EE1D72FAE0DD02F50800AAC
:101CA8009F0FD8A0AAD7D8902D322C322B322A32A7
:101CB8002F3EF9D70DD01F0E2F6407D09ED7D8908E
:101CC8002A362B362C362D362F062F50D8A4F7D788
:101CD8002AC024F02BC025F02CC026F02DC027F0F8
:101CE800120032C036F0376A386A3134363601E3CA
:101CF800378036500001846F8451D8A407D0000E75
:101D0800306E000E316E000E326E120035C036F0A5
:101D1800376A386A3434363601E337803650856F8F
:101D28008551D8A407D0000E306E000E316E000E1B
:101D3800326E1200000E816F000E826F000E836FEC
:101D48008551890F845F32C085F03550851B800E20
:101D58008517318EFF0E3016FF0E3116000E321623
:101D6800348EFF0E3316FF0E3416000E3516180E7D
:101D7800806FD8908137823783373350305C345046
:101D8800315835503258D8A007D03350305E3450CF
:101D9800315A3550325A8181D89030363136323600
:101DA800802FE7D781C024F082C025F083C026F0B9
:101DB80084C027F085C028F054EC0FF024C030F020
:101DC80025C031F026C032F0120092C094F0000114
:101DD800956B966B9135943701E3958194519E6F7D
:101DE8009E51D8A409D0000E906F000E916F000E7E
:101DF800926F000E936F1200170E946F90C095F0BB
:101E080091C096F092C097F09429986F04D0D8901A
:101E1800973396339533982FFAD700019551996FD8
:101E2800918FFF0E9017FF0E9117000E9217905189
:101E38009A6F91519B6F92519C6F9D6B8E0E9E5F16
:101E48009EAF0DD09E51800A8F0FD8A0CCD7D890C6
:101E58009D339C339B339A339E3FF9D70DD0170E91
:101E68009E6507D0C0D7D8909A379B379C379D3747
:101E78009E079E51D8A4F7D79951D8B408D09D1F72
:101E88009C1F9B1F9A6D000E9B239C239D239AC029
:101E980090F09BC091F09CC092F09DC093F012000E
:101EA8002750D8B405D0245025102610D8A40CD01B
:101EB800000E246E000E256E000E266E1200272AD4
:101EC800D890263225322432000E2414296E000EB2
:101ED80025142A6EFE0E26142B6E29502A102B105C
:101EE800D8B40CD0ECD7272A010E2426000E2522C0
:101EF800000E2622D890263225322432000E2414D1
:101F0800296E000E25142A6EFF0E26142B6E2950FA
:101F18002A102B10D8B406D0E6D72706D890243636
:101F28002536263625BE03D0020E2760F6D727A011
:101F3800259ED8902732275026122850D8A4268EBE
:101F480024C024F025C025F026C026F01200045035
:101F5800D8B405D0015002100310D8A40CD0000E3C
:101F6800016E000E026E000E036E1200042AD89055
:101F7800033202320132000E0114066E000E021402
:101F8800076EFE0E0314086E065007100810D8B42A
:101F98000CD0ECD7042A010E0126000E0222000EF6
:101FA8000322D890033202320132000E0114066E69
:101FB800000E0214076EFF0E0314086E0650071079
:101FC8000810D8B406D0E6D70406D89001360236F1
:101FD800033602BE03D0020E0460F6D704A0029EA8
:101FE800D8900432045003120550D8A4038E01C0BF
:101FF80001F002C002F003C003F01200000E2F6EC1
:102008002DAE06D02C6C2D1ED8B02D2A010E2F6EA9
:102018002BAE06D02A6C2B1ED8B02B2A010E2F1AF5
:10202800000E316E000E306E2C502D10D8B41CD01E
:10203800010E2E6E04D0D8902C362D362E2A2DAEB9
:10204800FAD7D890303631362C502A5C2D502B5880
:10205800D8A005D02C502A5E2D502B5A3080D8900D
:102068002D322C322E2EEDD72F50D8B404D0306C10
:10207800311ED8B0312A30C02AF031C02BF01200FE
:10208800000E2C6E000E2D6E000E2E6E000E2F6EA2
:10209800285029102A102B10D8B42AD0010E306EDF
:1020A80006D0D890283629362A362B36302A2BAE39
:1020B800F8D7D8902C362D362E362F362850245C5B
:1020C800295025582A5026582B502758D8A009D0CF
:1020D8002850245E2950255A2A50265A2B50275A10
:1020E8002C80D8902B322A3229322832302EE1D750
:1020F8002CC024F02DC025F02EC026F02FC027F0CC
:10210800120026AE0FD0000E2A6E000E2B6E800E27
:102118002C6E24502A5C246E25502B58256E265090
:102128002C58266E29AE0FD0000E2A6E000E2B6E8C
:10213800800E2C6E27502A5C276E28502B58286E4C
:1021480029502C58296E000E241A000E251A800ECC
:10215800261A000E271A000E281A800E291A275050
:10216800245C2850255829502658D8B002D0D89039
:102178001200D88012001DAE0FD0000E216E000E86
:10218800226E800E236E1B50215C1B6E1C50225841
:102198001C6E1D5023581D6E20AE0FD0000E216EF0
:1021A800000E226E800E236E1E50215C1E6E1F5084
:1021B80022581F6E20502358206E000E1B1A000E46
:1021C8001C1A800E1D1A000E1E1A000E1F1A800EF1
:1021D800201A1E501B5C1F501C5820501D58D8B088
:1021E80002D0D8901200D8801200000E296E25AEB9
:1021F80006D0246C251ED8B0252A010E296E27AEDC
:1022080004D0266C271ED8B0272A26502710D8B409
:1022180018D0010E286E04D0D89026362736282AE2
:1022280027AEFAD72650245C27502558D8A004D0CA
:102238002650245E2750255AD89027322632282E39
:10224800F1D72950D8B404D0246C251ED8B0252A3B
:1022580024C024F025C025F01200030EF66E2B0EC4
:10226800F76E000EF86E00EEF5F010EE06F00900BD
:10227800F5CFEEFFE550E150FAE1FA0EF66E2A0EC0
:10228800F76E000EF86E00EE53F010EE09F009003C
:10229800F5CFEEFFE550E150FAE10101E16BE06BAB
:1022A80000EED5F0200EEE6AE806FDE100EE39F00A
:1022B8001A0EEE6AE806FDE15C905C92000EF86E7C
:1022C800000167EF07F000018C6F00018C51F6ECFC
:1022D80013F024C08DF025C08EF08DC024F08EC080
:1022E80025F0000E276E050E266EC7EC14F024C0EC
:1022F8002CF025C02DF04DEC14F02CC030F02DC082
:1023080031F02EC032F0C00E336E7F0E346E440EA4
:10231800356E75EC0EF030C089F031C08AF032C0ED
:102328008BF089C086F08AC087F08BC088F01200D5
:102338003550361037103810D8B424D0010E806FBD
:1023480006D0D8903536363637363836802B38AE04
:10235800F8D73550315C36503258375033583850EA
:102368003458D8A008D03550315E3650325A3750DC
:10237800335A3850345AD8903832373236323532A8
:10238800802FE7D731C031F032C032F033C033F09C
:1023980034C034F012000A0E5A26000E5B225BBECF
:1023A80012005B5004E13B0E5A5CD8A01200C40E28
:1023B8005A245A6EFF0E5B205B6E494A4A2A4ABE6F
:1023C80012004A5004E13B0E495CD8A01200C40E2A
:1023D8004924496EFF0E4A204A6E584A592A59BE66
:1023E8001200595004E1090E585CD8A01200000EE2
:1023F800596E000E586E1200F60E5A26FF0E5B221A
:102408005BBE05D05B5027E15A04D8B012003C0EE1
:102418005A245A6E000E5B205B6E4906D8A04A0605
:102428004ABE05D04A5017E14904D8B012003C0E04
:102438004924496E000E4A204A6E5806D8A059060B
:1024480059BE05D0595007E15804D8B01200000E03
:10245800596E000E586E12005A4A5B2A5BBE120073
:102468005B5004E13B0E5A5CD8A01200C50E5A24FA
:102478005A6EFF0E5B205B6E494A4A2A4ABE12001A
:102488004A5004E13B0E495CD8A01200C40E49240E
:10249800496EFF0E4A204A6E584A592A59BE120000
:1024A800595004E1090E585CD8A01200000E596E6C
:1024B800000E586E12008E0E346E06D0D8902F3251
:1024C8002E322D322C32342A000E2C14306E000E8F
:1024D8002D14316E000E2E14326EFF0E2F14336E33
:1024E8003050311032103310D8A4E8D72CC024F063
:1024F8002DC025F02EC026F034C027F0000E286E1F
:1025080054EC0FF024C02CF025C02DF026C02EF07E
:102518001200316E1ED0010E2C6E000E30EC14F03D
:10252800000E256E020E246EDAEC14F01200020E74
:102538002E6E010E96EC13F01200100E2C6E000E8B
:1025480030EC14F0120031C02CF0010E30EC14F015
:1025580012003150080AD8B4F0D7020AD8B4E7D725
:10256800060AD8B4D8D7EFD70A0E4926000E4A2251
:102578004ABE12004A5004E13B0E495CD8A0120042
:10258800C40E4924496EFF0E4A204A6E584A592AF9
:1025980059BE1200595004E10A0E585CD8A0120026
:1025A800000E5B6E000E5A6E000E4A6E000E496EEB
:1025B800000E596E000E586E12005A06D8A05B061F
:1025C8005BBE05D05B501FE15A04D8B01200000E64
:1025D8005B6E3B0E5A6E4906D8A04A06492813E19D
:1025E8004A28D8A41200000E4A6E3B0E496E5806BF
:1025F800D8A05906582807E15928D8A41200000E77
:10260800596E000E586E1200494A4A2A4ABE1200F4
:102618004A5004E13B0E495CD8A01200000E4A6EF5
:10262800000E496E584A592A59BE1200595004E101
:102638000A0E585CD8A01200000E5B6E000E5A6E8F
:10264800000E4A6E000E496E000E596E000E586E4E
:10265800120084948492000E256E190E246EDAEC12
:1026680014F0010E2E6E030E11EC15F02E2A030E37
:102678002E64F9D7020E11EC15F0000E2E6E2E50B6
:10268800F50FD96EDA6ADF502C6E000E30EC14F0BC
:102698002E2A030E2E64F3D712000600F2A417D0D8
:1026A80045044610D8B40CD045504610D8A40DD0D7
:1026B80056505710D8A409D04B504C10D8A405D068
:1026C8007FEC0CF078EC15F00AD0F29408D0F0A06A
:1026D80003D05EEC15F003D0F2B24FEC15F05C922B
:1026E80011000001A251A311A411D8B406D0000E04
:1026F800A21B000EA31B800EA41B9FC093F0A0C0BA
:1027080094F0A1C095F0A2C096F0A3C097F0A4C021
:1027180098F0D6EC0AF093C09FF094C0A0F095C052
:10272800A1F012002F6E09D0800E05D0C00E03D084
:10273800900E01D0D00E306E0DD02E50010AD8B4B4
:10274800F3D7030AD8B4F2D7010AD8B4F1D7070AE5
:10275800D8B4F0D72F043026305080092C6E000EE4
:1027680030EC14F01200185019101A10D8B406D012
:10277800000E181A000E191A800E1A1A15C009F040
:1027880016C00AF017C00BF018C00CF019C00DF0F5
:102798001AC00EF0ABEC0BF009C015F00AC016F029
:1027A8000BC017F012004906D8A04A064ABE05D049
:1027B8004A5017E14904D8B012003C0E4924496E2A
:1027C800000E4A204A6E5806D8A0590659BE05D0B0
:1027D800595007E15804D8B01200000E596E000E87
:1027E800586E1200286E28C026F026462646C2508B
:1027F8002618C30B2618C26EC282C2B2FED7C350B7
:10280800C4CF26F0276A26C027F0266A2610296E2C
:1028180027502A6E29C024F02AC025F01200296EFC
:10282800000E2B6E2850D8B415D0010E2A6E03D096
:10283800D89028362A2A28AEFBD7D8902B3628508D
:10284800295CD8A003D02850295E2B80D890283244
:102858002A2EF3D72B5012002D6E2DB002D084945F
:1028680001D08484010E9BEC14F0010E9BEC14F053
:1028780084922C380F0B11EC15F02C500F0B11EC27
:1028880015F02D50D8B41200320E0400E82EFDD7F2
:102898001200000E2F6E2DAE06D02C6C2D1ED8B057
:1028A8002D2A010E2F6E2CC024F02DC025F0266A8B
:1028B8008E0E276E2FC028F054EC0FF024C02CF099
:1028C80025C02DF026C02EF01200F60E4926FF0E68
:1028D8004A224AAE12003C0E4924496E000E4A2094
:1028E8004A6E5806D8A0590659BE05D0595007E176
:1028F8005804D8B01200000E596E000E586E12001F
:10290800010EC26E0C0EC16E9368800E946E000E9E
:10291800826E9268000E956E000E966E9480829A72
:10292800D09EF28AD58EF28873EC15F01200276ECD
:10293800000E296E000E286E03D00400284A292AAA
:102948002750246E256A2850245C2550800A266E5C
:102958002950800A2658D8A01200EFD7256E080EF5
:10296800266E000E276ED89025342734276ED8900F
:1029780025362450275CD8A002D02450275E262E66
:10298800F2D72750120024502602F3CF28F0F4CFB4
:1029980029F024502702F350292625502602F35007
:1029A800292628C024F029C025F01200000E276E21
:1029B800000E266E07D0C80E04000400E82EFCD7CF
:1029C800264A272A2450265C25502758D8B01200BA
:1029D800F2D7245025102610D8B406D0000E241A99
:1029E800000E251A800E261A24C024F025C025F0D2
:1029F80026C026F0120009D032C0D9FF33C0DAFF52
:102A0800DF508DEC12F0324A332A32C0D9FF33C07E
:102A1800DAFFDF50D8B41200EFD72B6E2BC02AF0A4
:102A28002A3A83502A180F0B2A18836E010E9BEC42
:102A380014F08482040000F084921200584A592A43
:102A480059BE1200595004E10A0E585CD8A0120071
:102A5800000E596E000E586E1200266E000E256E7E
:102A68003A0E266005D02F0E266402D0010E256E80
:102A780025C024F0243012005806D8A0590659BEA3
:102A880005D0595007E15804D8B01200000E596E0D
:102A9800000E586E1200F2925A505B10D8B4120011
:102AA80049504A10D8B4120058505910D8B41200DE
:102AB800829A1200F090050E0101E019E111D8A4E4
:102AC80005D0000EE16F000EE06F1200E04BE12B25
:102AD8001200000EC26EC280890EC06E12000B0E6C
:102AE800B36EDC0EB26E12000B0EB36EDC0EB26E5D
:102AF800120000803F010001001400280C010604A8
:012B080000CC
:10FED8000000803F00204100C842007A44401C4690
:10FEE80050C34724744997184BBCBE4C6B6E4E03E5
:10FEF800155079AD60F3497100803FCDCC3DD723D3
:10FF08003C12833AB7D138C62737388635C0D6333E
:10FF1800CC2B32708930E7DB2EE53C1E42A20D0166
:10FF28000000000A00000064000000E80300001060
:10FF3800270000A086010040420F0080969800002C
:10FF4800E1F50500CA9A3B54696D65203A202530D1
:10FF580032643A253032643A253032640020203148
:10FF6800302053454320202020202020202020001E
:10FF780020205345432020202020202020202020FE
:10FF88000020204D494E2020202020202020202005
:10FF98000020203130204D494E20202020202000F4
:10FFA800544D503A25332E3166432020200020201E
:10FFB800484F55522020202020005350203A253306
:10FFC8002E316643004D44203A202020202000286E
:10FFD8006E756C6C29004F46462020200020434B4C
:10FFE8003A2573002048543A2573004F4E202020AC
:08FFF800004F464620200000E6
:020000040020DA
:08000000FFFFFFFFFFFFFFFF00
:020000040030CA
:0E000000FF011F1FFF8385FF0FC00FE00F40A1
:00000001FF
